:020000040800F2
:100000008012002099010008EF1B0008531400081B
:10001000ED1B000805020008451D00080000000057
:1000200000000000000000000000000001010008C6
:10003000210200080000000045010008191C00080A
:10004000B3010008B3010008B3010008B3010008C0
:10005000B3010008B3010008B3010008B3010008B0
:10006000B3010008B3010008B3010008B3010008A0
:10007000B3010008B30100080902000815020008D6
:10008000B3010008B3010008B3010008B301000880
:10009000B3010008B3010008B3010008B301000870
:1000A000B3010008CD1C0008B3010008B30100082B
:1000B000B3010008B3010008B3010008B301000850
:1000C000B30100086114000855140008B3010008CA
:1000D000B3010008B3010008B3010008B301000830
:1000E000B3010008B3010008B3010008DFF80CD029
:1000F00000F076F800480047691D000880120020D3
:10010000224B19680868B0E8F00F80F30988BFF344
:100110006F8F4FF0000080F311884EF00D0E704786
:100120000000000006480068006880F3088862B696
:1001300061B6BFF34F8FBFF36F8F00DF00BF00BF0B
:1001400008ED00E0EFF30980BFF36F8F0F4B1A68E3
:1001500020E9F00F106008B54FF0500080F31188CF
:10016000BFF34F8FBFF36F8F02F0BAF94FF000006B
:1001700080F31188BDE8084019680868B0E8F00FFE
:1001800080F30988BFF36F8F704700BF38000020ED
:10019000EFF3058070470000064880470648004797
:1001A000FEE7FEE7FEE7FEE7FEE7FEE7FEE7FEE727
:1001B000FEE7FEE7851C0008ED00000840EA0103A9
:1001C0009B0703D009E008C9121F08C0042AFAD20D
:1001D00003E011F8013B00F8013B521EF9D27047D1
:1001E000064C074D06E0E06840F0010394E8070084
:1001F00098471034AC42F6D3FFF77CFF1428000870
:1002000034280008FEE70000014800F057B800005D
:100210000C010020014800F051B80000C800002087
:100220007047000010B590F821100024022903D077
:100230000421816301243DE001680A6822F00E0276
:100240000A6001680A6822F001020A601A4A01681D
:10025000914201D1012121E0174A1432914201D18A
:1002600010211BE0144A2832914201D1891515E072
:10027000114A3C32914201D189140FE00E4A5032AA
:10028000914202D14FF4803108E00B4A643291422E
:1002900002D14FF4801101E04FF08071064A083A14
:1002A0005160012180F82110002180F82010416B5D
:1002B00001B18847204610BD080002402DE9F05FDB
:1002C000C16B0C6801680B68D0F840C0042202FAC8
:1002D0000CF2494DDFF824A1494E4A4FDFF828B10E
:1002E000DFF828E122422CD05A072AD50A68920664
:1002F00003D40A6822F004020A600168A94201D10D
:10030000042219E0514501D1402215E0B14202D149
:100310004FF4806210E0B94202D14FF480420BE00A
:10032000594502D14FF4802206E0714502D14FF4C5
:10033000800201E04FF080622F4908394A60C16AAB
:100340003BE04FF0020808FA0CF818EA040F4FF0EF
:1003500000094FF0010235D05FEA837832D50B688F
:100360009B0605D40B6823F00A030B6080F821205C
:100370000168A94201D1022219E0514501D1202290
:1003800015E0B14202D14FF4007210E0B94202D13F
:100390004FF400520BE0594502D14FF4003206E011
:1003A000714502D14FF4001201E04FF00072124982
:1003B00008394A6080F82090816A00291AD0BDE887
:1003C000F05F0847082505FA0CF5254212D01B07F7
:1003D00010D50B6823F00E030B6090F84010C36B30
:1003E00002FA01F15960826380F8212080F82090A0
:1003F000016BE2E7BDE8F09F080002401C000240EC
:100400003000024044000240580002406C000240AC
:1004100030B548B308C8154914221944B1FBF2F1AC
:100420008900C16312498163022141771A6843F64A
:10043000F0718A43D0E900142143D0E902452C43EE
:1004400021430469214344692143846921431143C1
:100450001960002141628162C1620163416301222E
:1004600042770177084630BD012030BDF8FFFDBF5F
:10047000000002402DE9F84FDFF890A100220AF1B8
:10048000040B144601274FF00F090BF1040E00BFB7
:100490000B6807FA04F52B40AB4274D1DFF870C14A
:1004A0004E68A6EB0C0866452BD00DDC032E34D02D
:1004B00005DC36B3012E19D0022E2FD11BE0112EF0
:1004C00016D0122E2AD119E0B8F5881F19D006DCF3
:1004D000B8F5803F15D0B8F5801F1FD111E0B8F5F1
:1004E000001F0ED0B8F5041F18D10AE0CA6815E045
:1004F000CA68121D12E0CA6808320FE0CA680C32DE
:100500000CE08A682AB1012A4FF0080203D0456145
:1005100004E0042202E0056100E00022FF2B01D884
:10052000064601E000F104064FEA840501D9A5F171
:100530002005D6F800C009FA05F82CEA080C02FAE2
:1005400005F54CEA050CC6F800C04D68ED0057D51E
:10055000304DAE6946F00106AE61AD6924F0030688
:1005600005F0010500952C4D06EB050CDCF8085054
:10057000A6074FEA167809FA08F6B543274EB042A7
:1005800002D1002610E03BE0254EB04201D1012609
:100590000AE0244EB04201D1022605E0224EB042CC
:1005A00001D1032600E0042606FA08F62E43CCF813
:1005B00008604D68DAF80060ED03554601D51E432A
:1005C00000E09E432E604D68DBF80060AD035D46A1
:1005D00001D51E4300E09E432E604D68DEF80060AA
:1005E000ED02754601D51E4300E09E432E604D6826
:1005F000AD020E4D2E6801D51E4300E09E432E60D5
:10060000641C102CFFF444AFBDE8F88F00040140D7
:1006100000001110001002400000014000080140DD
:10062000000C014000100140001401400C04014086
:100630000148806870470000040000207047704740
:1006400070B5044600684569466830490D420DD0D2
:10065000F1050BD5216C41F0010121646FF480712B
:1006600041612068016841F40041016015F4813F57
:1006700009D0F00507D5206C40F002002064216805
:100680006FF40070486115F4823F28D0F00526D53C
:1006900094F83E30628D94F83D00216B202B08D1F8
:1006A0003AB921280ED029280CD0282801D1212997
:1006B00008D0206C40F00400206494F83E0010281C
:1006C00004D008E0204601F0C5F908E02068016880
:1006D00041F40071016021686FF48060486115F495
:1006E000843F09D0F00507D5206C40F00800206455
:1006F00021686FF400604861206C002804D0204617
:10070000BDE8704000F0DABE70BD000000010100DD
:100710002DE9F05F02680446D2F8188055695668E2
:1007200090F83E007449DFF8D0A1DFF8CCB1DFF8D3
:10073000CC918F1C0AF17E0A0BF13E0B102812D0CF
:10074000402810D00D425BD0B00559D593692046A2
:100750000021DB435B0700D501219269D2431206D9
:1007600048D5828947E015F0011F05D0B00503D5B3
:10077000204601F042F910E05F48801D054205D097
:10078000B00503D5606CC0B2106106E00D4204D024
:10079000B00502D5204601F0A3F818EA090F14D0DD
:1007A00015EA0A0F08D0700506D53D4206D120464D
:1007B000BDE8F05F01F010B83D421FD0B0051DD577
:1007C0002046BDE8F05F00F0C6BF15EA0B0F08D069
:1007D000700506D53D4206D12046BDE8F05F00F029
:1007E00063BF3D420AD0B00508D52046BDE8F05FA2
:1007F00000F0F6BE028B92B2FFF721FFBDE8F09F3A
:100800003D480E30054206D0B00504D52046BDE86F
:10081000F05F01F061B918EA090F4FF0280134D0F8
:1008200015EA0A0F23D0700521D53D4221D194F855
:100830003D302046628D002AE0D0426A541C44625A
:10084000046812782261428D521E4285428D002A30
:10085000D4D1292BD2D10268536823F4806353602A
:100860002122026380F83D1000F065F9C6E73D42A1
:10087000C4D0B005C2D5608D0028BFD0606A411CCD
:10088000616221680078086131E015EA0B0F22D01F
:10089000700520D53D4220D194F83D302046648D2E
:1008A000002CABD01469426A551C45621470428D0D
:1008B000521E4285428D002AA0D12A2B9ED1026869
:1008C000536823F4806353602222026380F83D1052
:1008D00000F030F992E73D4290D0B0058ED5608DA2
:1008E00000288BD01169606A421C62620170608DC1
:1008F000401E608582E70000020001000400100035
:100900007047000070B504001BD094F83D0000252E
:1009100020B984F83C50204600F09AF8242084F84E
:100920003D002068016821F00101016000F0AEFA8D
:10093000404A6168914201D83F4900E03F498842FE
:1009400001D2012070BD3E492368B0FBF1F159602E
:100950006368934206D94FF4967359434FF47A7300
:10096000B1FBF3F12368491C19626168914210D808
:100970004900401EB0FBF1F2521CC2F30B02042AE4
:1009800001D2042022E0B0FBF1F0401CC0F30B00C8
:100990001CE0A368CBB301EBC10202EB0116421EBF
:1009A000B2FBF6F2521C42F48042120536D06BB311
:1009B00001EBC10202EB0111401EB0FBF1F0401C43
:1009C000C0F30B0040F4804040F400402168C8614F
:1009D000D4E90701084321680860D4E903100843FB
:1009E00021688860D4E9050108432168C86020684F
:1009F000016841F0010101602564202084F83D0078
:100A0000256384F83E50002070BD00E008E001EB53
:100A10004106421EB2FBF6F2521CC6E70120D5E7A2
:100A200001EB4101401EB0FBF1F0401CC0F30B0094
:100A3000CAE70000A086010080841E0000093D0076
:100A400040420F0070477047704770477047000082
:100A5000F0B5064600682A4985B088424ED14FF469
:100A600040600090122001900320039069462548C1
:100A7000FFF700FD2448C16941F48001C161C069EC
:100A8000234D00F48000049020480024C5E90004B0
:100A90008027C5E902472C616C61AC612846EC6196
:100AA000FFF7B6FC18B184211AA001F04CF9B56328
:100AB0006E6216481E4D143801C5102091C51C48A1
:100AC00045F810496C61AC61EC61FFF7A1FC18B10D
:100AD000942110A001F037F975630022052121202F
:100AE0006E6200F0D1F8212000F0C2F8002205214A
:100AF000222000F0C9F8222000F0BAF805B0F0BDBD
:100B000000580040000C0140001002405800024014
:100B1000C80000202E2E2F5372632F73746D333252
:100B2000663178785F68616C5F6D73702E6300006A
:100B30000C01002070477047024881680278114418
:100B40008160704704000020074810B5016841F03B
:100B500010010160032000F0B7F8002000F006F853
:100B600000F03EF8002010BD0020024000B5014614
:100B700087B00022192000F087F8192000F078F8DB
:100B80001348816941F400618161806905A900F41D
:100B900000600690684600F053F900F087F90D49AF
:100BA0000D4AB0FBF1F10D48491E0260416040F270
:100BB000E7320021C0E90321816000F061FB10B140
:100BC000012007B000BD054800F076FBF9E7000002
:100BD0000010024040420F00002C01405001002054
:100BE000214808B5816941F001018161816901F005
:100BF00001010091C16941F08051C161C06900F0FB
:100C000080500090032000F05FF8002211466FF042
:100C10000B0000F039F8002211466FF00A0000F0D6
:100C200033F8002211466FF0090000F02DF8002281
:100C30001146501F00F028F800221146101F00F046
:100C400023F800220F21901E00F01EF800220F2131
:100C5000501E00F019F80548416821F0E06141F0AC
:100C60000071416008BD000000100240000001401A
:100C700000F01F02012191404009800000F1E020B6
:100C8000C0F8001170470000F0B40E4B1B680C4612
:100C9000C3F30223C3F10705042D00D90425191D50
:100CA000072901D2002300E0DB1E012606FA05F128
:100CB000491E214099409E40761E16403143F0BCAB
:100CC00000F096BF0CED00E0064900F0070208684E
:100CD0004FF6FF03184040EA0220034A1043086021
:100CE000704700000CED00E00000FA052DE9F04728
:100CF000DFF83C8105460E46D8F8000000F00700FA
:100D0000B0420CD2D8F8001021F007013143C8F8E6
:100D10000010D8F8000000F00700B04263D1287836
:100D2000444C800705D56068A96820F0F0000843AE
:100D300060602878C00745D06868012816D021680F
:100D4000022816D0890700294DDA616821F00301D5
:100D500001436160FFF76CFC6968074641F2883027
:100D600001290FD00229814619D027E02168890383
:100D7000E9E78901E7E700BFFFF75AFCC11B4945D6
:100D800001D918E081466068C0F381000128F3D1E1
:100D900018E000BFFFF74CFCC11B49450BD8606849
:100DA000C0F381000228F5D10CE000BFFFF740FC42
:100DB000C11B494502D90320BDE8F087606810F0E7
:100DC0000C0FF3D1D8F80010404601F00701B142F2
:100DD0000BD9016821F0070131430160006800F080
:100DE0000700B04201D00120E6E72878400705D58A
:100DF0006068E96820F4E0600843606028780007D4
:100E000006D56068296920F4605040EAC10060603E
:100E100000F05CF86168084AC1F30311515CC840F6
:100E2000064908600020FFF7A1FE0020C4E700008B
:100E30000020024000100240F027000810000020AF
:100E40000F2202600C4A536803F0030343605368A7
:100E500003F0F0038360536803F4E063C3605268F7
:100E60004FF4E06303EAD20202610448006800F034
:100E70000700086070470000001002400020024098
:100E80000148006870470000100000200448054930
:100E900000684968044AC1F30221515CC8407047A8
:100EA00010000020001002400028000804480549F6
:100EB00000684968044AC1F3C221515CC8407047C8
:100EC00010000020001002400028000812A185B088
:100ED0000FC98DE80F0014A0144A006804905168EF
:100EE000134801F00C03042B10D0082B0ED1C1F3D2
:100EF0008343C9031DF803000AD5516804AAC1F34E
:100F00004041515C0A4A5043B0FBF1F005B07047D4
:100F100008494843FAE700000203040506070809E8
:100F20000A0B0C0D0E0F1010010200000010024001
:100F300000127A0000093D002DE9F84F04460078C0
:100F4000B94DC00748D06868C0F38100012807D0B8
:100F50006868C0F38100022809D16868C00306D51B
:100F60002868800338D5606800286FD034E0606856
:100F7000B0F5803F0BD010B1B0F5A02F11D028688C
:100F800020F480302860286820F4802002E028685F
:100F900040F480302860606888B1FFF749FB06465E
:100FA00009E0286840F480202860F0E7FFF740FB64
:100FB000801B642875D828688003F7D50CE0FFF7FC
:100FC00037FB064605E000BFFFF732FB801B6428B5
:100FD000F0D828688003F7D42078944E80074FF02B
:100FE00001094FF000083BD5686810F00C0F07D0DE
:100FF0006868C0F38100022809D16868C00306D47C
:101000002868800714D5206901281FD110E02069C5
:10101000B0B1C6F80090FFF70BFB074605E000BF34
:10102000FFF706FBC01B0228C4D828688007F7D545
:101030002868616920F0F80040EAC10028600FE0EC
:10104000C6F80080FFF7F4FA074606E0E9E000BFC3
:10105000FFF7EEFAC01B022823D828688007F7D4D0
:10106000207800072CD57248A169D9B1C0F800904A
:10107000FFF7DEFA074604E0FFF7DAFAC01B0228A2
:101080000FD8686A8007F7D56A484FF4FA510068AC
:10109000B0FBF1F0009000BF0098411E0091FAD221
:1010A0000EE080E0C0F80080FFF7C2FA074604E0D7
:1010B000FFF7BEFAC01B022875D8686A8007F7D40C
:1010C0002078400760D5E8690027C00008D4E869A7
:1010D00040F08050E861E869012700F080500090FE
:1010E00055480168C90513D40168834641F48071ED
:1010F0000160FFF79DFA824606E000BFFFF798FA0D
:10110000A0EB0A0064284ED8DBF80000C005F5D536
:10111000E06801280AD008B1052813D0286A20F019
:1011200001002862286A20F0040002E0286A40F0EA
:1011300001002862E06841F2883B98B1FFF778FA35
:1011400082460BE0286A40F004002862EEE700BF08
:10115000FFF76EFAA0EB0A0159455AD8286A8007B2
:10116000F6D50CE0FFF764FA824605E0FFF760FA77
:10117000A0EB0A0159454CD8286A8007F6D41FB164
:10118000E86920F08050E861E06988B36968C1F3DC
:101190008101022945D00228C6F8608004D0FFF7FB
:1011A00047FA044638E034E0FFF742FA074604E025
:1011B000FFF73EFAC01B02282BD828688001F7D41D
:1011C000206AB0F5803F05D16868A16820F400303E
:1011D00008436860D4E908010843696821F4741180
:1011E00008436860C6F86090FFF722FA044606E0FC
:1011F00015E000BFFFF71CFA001B022809D8286879
:101200008001F7D50BE000BFFFF712FA001B0228A0
:1012100002D90320BDE8F88F28688001F4D40020AB
:10122000F8E70120F6E7000000100240000042420B
:101230008004424210000020007000404FF0E02186
:101240000428086903D020F004000861704740F0CA
:101250000400FAE710B5401EB0F1807F01D30120F1
:1012600010BD4FF0E02460610F21601700F0C0FC5A
:101270000020A06107202061002010BD704770474A
:1012800010B5040003D094F83D0010B107E0012030
:1012900010BD002084F83C00204600F00CF802202D
:1012A00084F83D00211D206800F016FD012084F81F
:1012B0003D00002010BD70470168CA6842F001027D
:1012C000CA600068016841F00101016000207047B8
:1012D000704770B50446006801694FF00005C943C6
:1012E000890715D4C168C943890711D4E91E016172
:1012F00001202077206880698007204602D0FFF710
:10130000E7FF04E000F098F8204600F096F8257713
:1013100020680169C943490717D4C168C94349070F
:1013200013D46FF0040101610220207720688069E6
:1013300010F4407F204602D0FFF7CAFF04E000F01F
:101340007BF8204600F079F8257720680169C943C9
:10135000090716D4C168C943090712D46FF0080100
:101360000161042020772068C0698007204602D0F0
:10137000FFF7AEFF04E000F05FF8204600F05DF8F4
:10138000257720680169C943C90617D4C168C943D4
:10139000C90613D46FF0100101610820207720687E
:1013A000C06910F4407F204602D0FFF791FF04E0AF
:1013B00000F042F8204600F040F8257720680169E7
:1013C000C943C90708D1C168C943C90704D1891EE7
:1013D0000161204600F032F820680169C94309061E
:1013E00009D4C168C943090605D46FF080010161C1
:1013F0002046FFF743FF20680169C943490609D425
:10140000C168C943490605D46FF040010161204617
:1014100000F01EF820680169C94389060BD4C16831
:10142000C943890607D46FF0200101612046BDE859
:101430007040FFF724BF70BD7047704700680349D4
:10144000884201D1FFF778BB70470000002C0140B3
:101450007047FEE70148FFF7F3B800007400002072
:101460000148FFF755B900007400002010B5406A2C
:1014700001680A6822F480620A6000214185426B9B
:101480005163826B516390F83D302022602B80F8CD
:101490003D2080F83E1007D001680A6822F0010262
:1014A0000A60FFF72DFA10BD016401680A6822F096
:1014B00001020A60FFF7C2F810BD000070B590F895
:1014C0003D10044600252026006829292DD02A2910
:1014D0002BD094F83D10602904D04168090501D44F
:1014E00084F83D60256384F83E50016821F4006172
:1014F000016020684168090537D5416821F4006121
:101500004160606B344990F82120012A12D0416378
:10151000606BFEF787FE38B32068016821F0010197
:10152000016084F83D60606B1CE02563282184F82D
:101530003D10DAE7A06B4163A06BFEF773FE98B134
:1015400020684169C943490604D40169606A421CA4
:10155000626201702068016821F00101016084F875
:101560003D60A06B416B88470FE094F83D10602907
:101570001DD04169C943490604D40169606A421C0F
:10158000626201702046FFF7BBF994F83D002828FD
:101590000CD1206C400709D51048E062256384F81F
:1015A0003D6084F83E502046FFF74CFA70BD84F849
:1015B0003D6025644169C943490604D40169606AF4
:1015C000421C626201702068016821F00101016023
:1015D0002046FFF733F8D8E76D1400080000FFFF3E
:1015E00010B5C26A448D2F4B0168032C03D0448D83
:1015F000022C15D00AE0042A03D0082A01D09A420E
:1016000003D10A6822F480620A6001680A69416AAB
:101610004B1C43620A70418D491E4185002010BD5C
:10162000042A12D0082A10D09A420ED0022A0A6840
:1016300002D022F4806201E042F480620A60016814
:101640004A6822F440724A6008E04A6822F4407214
:101650004A6001680A6842F400720A6001680A6917
:10166000416A4B1C43620A70418D491E41850168E5
:101670000A69416A4B1C43620A70418D491E4185CB
:10168000202180F83D100021016390F83E2080F871
:101690003E10402A02D0FFF7D6F9BFE7FFF7D5F991
:1016A000BCE700000000FFFF10B590F83D102229B4
:1016B0004CD1418D032909D901680A69416A4B1C43
:1016C00043620A70418D491E41853FE0022909D0DD
:1016D000032907D0C16A022901680A6818D022F4D8
:1016E000806217E0C16A022901680A6807D022F403
:1016F00080620A6001680A6842F4006201E042F414
:1017000080620A600068416821F4806141601DE0E8
:1017100042F480620A6001684A6822F4E0624A602A
:1017200001680A69416A4B1C43620A70418D491E77
:101730004185202180F83D100021016390F83E2072
:1017400080F83E10402A03D0FFF77DF9002010BD3D
:10175000FFF77BF9FAE710B5C26A90F83D1021292E
:1017600021D1418D49B1416A4A1C4262026809781F
:101770001161418D491E418515E020230021042A75
:1017800013D0082A11D012F5803F0ED00268546899
:1017900024F4E06454601122026380F83E1080F863
:1017A0003D30FFF751F9002010BD0268546824F461
:1017B000E06454600268146844F4007414600163C7
:1017C00080F83D3090F83E2080F83E10402AE8D165
:1017D000FFF73CF9E7E7000010B590F83D1090F8EE
:1017E0003E30C26A048D24B1212934D0402B30D040
:1017F00074E02129FAD120230021042A13D0082AD9
:1018000011D012F5803F0ED00268546824F4E064D1
:1018100054601122026380F83E1080F83D3000BF12
:10182000FFF712F95AE00268546824F4E064546047
:101830000268146844F400741460016380F83D3059
:1018400090F83E2080F83E10402AE9D1FFF7FEF8DC
:1018500044E0222942D1418D21B190F83E10402927
:1018600006D032E00068416821F48061416035E0D3
:10187000016D31B1016D012911D0016D022915D021
:101880002CE0C16C0129816C02D0C1F3072108E072
:101890000268C9B21161016D891C01651EE0816C8D
:1018A000C9B202681161016D491CF6E790F83D105C
:1018B000222904D090F83D10212906D00EE00068BE
:1018C000016841F48071016008E0416A4A1C42628B
:1018D000026809781161418D491E4185002010BDC3
:1018E00078B590F83E50C26A046B90F83D600023D2
:1018F0000168222E06D1066D0EB9402D02D0056D6D
:1019000025B107E04869886900901CE00569B5F5D4
:10191000404F1AD0458D85B3458D012D20D0428D85
:10192000022A4AD00A6842F480620A6001684A6862
:10193000120503D54A6842F480524A6001684A6938
:10194000896900910365002078BD4A698A6900921F
:101950000A6842F480720A60016D491C0165F2E771
:1019600012F5803F0AD0042A21D0082A1FD0122C59
:101970001DD0C26A022A09D114E00BE00A6822F4E1
:1019800080620A6001684A68120503D50A6822F479
:1019900080620AE04A698A6900920A6842F4007229
:1019A0000A60CFE70A6842F480620A60C6E70A6804
:1019B00022F480620A600168ECE7C26A022A0A68BF
:1019C0000BD042F400620A6001684A698A69009299
:1019D0000A6822F480620A6006E042F480620A60CB
:1019E00001684A698969009101684A681205A9D5A8
:1019F0004A6842F480524A60A4E790F83E104029B9
:101A000009D00169B1F5804F10D0016D99B1016D18
:101A1000012915D01CE0016D19B9416C01F0FE01DE
:101A200014E0416CC9B241F001010FE090F83D10A3
:101A30002129F6D1F1E7416CF02201F4407103E075
:101A4000416CF12201F4407142EAD1110068016158
:101A5000002070472DE9F04190F83D40C26A002314
:101A60001C4F202601686FF48065042A01D0082AE3
:101A700001D1282C05D0212C17D04D610020BDE8C4
:101A8000F081C7624A6822F4E0624A6001684D61F1
:101A900001680A6822F480620A60036380F83D608E
:101AA00080F83E30FEF7CEFFE8E7C76221220263EE
:101AB00080F83D6080F83E304A6822F4E0624A6077
:101AC00001684D6101680A6822F480620A60FFF7CC
:101AD00032F8D3E70000FFFF38B590F83D200168E9
:101AE0004B6823F4E0634B60036800215C69009459
:101AF0001C6844F001041C6003681C6824F48064C2
:101B00001C6003685C6824050BD590F83D40222CCE
:101B10002BD090F83D402A2C27D0446B2468646871
:101B20004485448DE4B15C69E443640707D41C69CF
:101B3000436A5D1C45621C70438D5B1E43850368D0
:101B40005C69E443640607D41C69436A5D1C456212
:101B50001C70438D5B1E4385036C43F004030364D8
:101B6000036C23B1FFF7AAFC1FE0846BD6E72023A8
:101B7000282A09D02A2A07D0292A05D0046B222C2A
:101B80000CD0222A0AD010E0094AC262016380F810
:101B90003D3080F83E10FEF755FF06E0016380F807
:101BA0003D3080F83E10FEF7C5FF002038BD000034
:101BB0000000FFFF0B4810B5094901600A49416068
:101BC00000214FF480428160C0E9031241618161CC
:101BD000C1610162FEF796FE002800D0FEE710BD4D
:101BE0000058004074000020A0860100FEE7704706
:101BF0000907090E002806DA00F00F0000F1E020C6
:101C000080F8141D704700F1E02080F80014704740
:101C1000012000F003F9FBE700F00CB930B58FB0FC
:101C200001210804CDE9001000240294022504914A
:101C3000CDE907504FF4E01009906846FFF77CF9B2
:101C400000B1FEE70F20CDE90A054FF48060CDE931
:101C50000C4002210AA80E94FFF748F800B1FEE7F5
:101C6000FFF70EF94FF47A71B0FBF1F0FFF7F2FADB
:101C70000420FFF7E3FA00220F21501EFFF704F8BB
:101C80000FB030BD0D48016841F0010101604168AD
:101C90000B4A1140416001680A4A11400160016825
:101CA00021F480210160416821F4FE0141604FF47C
:101CB0001F0181600449C0030860704700100240A2
:101CC0000000FFF8FFFFF6FE08ED00E00148FFF717
:101CD00000BB000050010020F0B50268164B174C05
:101CE000174D4FF08047984205D0B84203D0A0422C
:101CF00001D0A84203D122F070064A6832439842CC
:101D000005D0B84203D0A04201D0A84203D122F4AA
:101D10004074CA68224322F080044A692243026068
:101D20008A68C2620A688262984201D109690163C5
:101D300001214161F0BD0000002C01400004004081
:101D400000080040FEE7FEE702E008C8121F08C1D5
:101D5000002AFAD170477047002001E001C1121F2C
:101D6000002AFBD17047000086B0FEF7EDFEFFF7BA
:101D700055FF2448816941F010018161816901F0BA
:101D800010010591816941F020018161816901F0B3
:101D900020010591816941F008018161816901F0AB
:101DA00008010591816941F004018161816901F0B7
:101DB00004010591416941F001014161406900223E
:101DC00000F00100059005210E20FEF75DFF0E20BA
:101DD000FEF74EFF002205210F20FEF755FF0F20D2
:101DE000FEF746FFFFF7E6FE142207496846FEF7B6
:101DF000E5F90021684600F027F80449086000F082
:101E000014F8FEE700100240DC2700080000002064
:101E100001460020842900D0C81C704710B500B9C5
:101E2000012000F0FBFA002010BD10B500F01CFBF3
:101E3000002010BD10B500F0FDFB012803D0BDE867
:101E4000104000F0B5BB10BD3EB504460D46B0F9DC
:101E50000800FFF7DDFF02A9CDE90001208A2B462B
:101E600082B2D4E9001000F0B9FB012801D00020B3
:101E70003EBD02983EBD00002DE9F041184C0F46D2
:101E80000546E6682068001D00F012FA38B920689F
:101E900090F82C1001208840216981432161681C41
:101EA00007D137B12168BDE8F0410E48091D00F0A7
:101EB00037BA20683544B5424560216805D2A06B29
:101EC000BDE8F041091D00F013BA606B091D00F078
:101ED0000FFAA06A854200D2A562BDE8F081000039
:101EE000380000206C0E00202DE9F041054600F07E
:101EF00023FA2E4CA068401CA06020682C4F10B123
:101F0000606940B32DE02560A068012829D1002632
:101F100006EB860007EB800000F0DCF9761C072E4C
:101F2000F6D323488C3000F0D5F92148A03000F0DA
:101F3000D1F91F48B43000F0CDF91D48C83000F089
:101F4000C9F91B48DC3000F0C5F919488C306063D2
:101F50001430A06305E02068E96AC06A884200D8AE
:101F60002560606A401C6062E96A0120226988403D
:101F70001043206101EB810007EB8000291D00F078
:101F8000CFF900F0F9F9606900280CD02068E96AFF
:101F9000C06A884207D207494FF080500860BFF3FB
:101FA0004F8FBFF36F8FBDE8F08100003800002035
:101FB000900D002004ED00E070B5114E114C17E0BB
:101FC00000F086FA3068B8B100F0A6FB00F0B4F972
:101FD000F068C568281D00F06BF9A068401EA0607D
:101FE0006068401E606000F0C7F9284600F00CF8F9
:101FF00060680028E4D170BD00F08EFBF8E70000B7
:10200000580E00203800002010B50446006B00F088
:10201000C7F92046BDE8104000F0C2B910484FF49F
:102020004061420706D0C01D0D4920F00700411A4B
:10203000C1F540610B4A00230144C2E9000308399D
:10204000103A21F0070111604B600B600B1AC0E9D8
:10205000001393604FF000405360D0607047000061
:102060009001002024000020074C4FF08056074DBF
:10207000FFF7A2FF20680128FAD92E60BFF34F8F27
:10208000BFF36F8FF4E70000900D002004ED00E037
:102090002DE9F0479A46DDE9098481466FF0030394
:1020A000206B03EB82021044089D20F007067007A6
:1020B00007D0502080F31188BFF34F8FBFF36F8F8D
:1020C000FEE723180A5C83F834200A5C12B1401C36
:1020D0001028F6D3002784F84370072D00D3062577
:1020E000E562C4E91157201D00F0FFF804F1180063
:1020F00000F0FBF82461C5F107006462A061E764A9
:1021000084F8507052464946304600F0BFF82060CF
:10211000B8F1000F01D0C8F80040BDE8F08700001A
:1021200030B5114900E011460A688242FBD34B6882
:102130005C18844203D140681844486008464368EC
:102140001C18944209D1084C103C2468A24209D0C2
:1021500052681A4442600A6812680260814200D0E4
:10216000086030BD0460F9E7240000200648416B98
:10217000096829B1416BC968C968496881627047BB
:102180004FF0FF31FAE700003800002008484068AF
:10219000401C4FF0500080F3118804D0BFF34F8FE4
:1021A000BFF36F8FFEE7BFF34F8FBFF36F8FFEE775
:1021B0002C0000202DE9F0410546002700F088F9A9
:1021C000314E306808B9FFF729FFF06805424BD15E
:1021D000C5B3083568070ED005F00700C0F1080048
:1021E0000544680707D0502080F31188BFF34F8F54
:1021F000BFF36F8FFEE72DB37068854234D8224855
:10220000103001460C6801E020460C466168A94286
:1022100002D221680029F7D131688C4224D00768A6
:102220002168016060680837411B10290FD96019C7
:10223000420708D0502080F31188BFF34F8FBFF3BF
:102240006F8FFEE710E041606560FFF769FF61682E
:102250007068401A7060B268904200D2B060F06856
:1022600001430020C4E9000100F056FA780707D0C6
:10227000502080F31188BFF34F8FBFF36F8FFEE7BD
:102280003846BDE8F08100001400002010B5031F9F
:102290004FF080741C601B1F21F001011960191F91
:1022A000024B0B60143940380A6010BD8D210008C4
:1022B000D0E9013201699A60D0E901235A604A6885
:1022C000824201D182684A60002202610868401E91
:1022D0000860704700F108014FF0FF32C0E90112B9
:1022E000C1600161002101607047002101617047F8
:1022F00030B50B685A1C02D000F1080202E00269F6
:1023000004E02246546825689D42FAD953684B6020
:1023100099608A60516008610168491C016030BDA4
:1023200042684A6093688B60936859609160086165
:102330000168491C01607047502080F31188BFF389
:102340004F8FBFF36F8F0A494868401C48600128CF
:102350000CD10848006810F0FF0F07D0502080F320
:102360001188BFF34F8FBFF36F8FFEE770470000F8
:102370002C00002004ED00E00849486828B1401E08
:10238000486001D180F311887047502080F3118894
:10239000BFF34F8FBFF36F8FFEE700002C000020CC
:1023A00070B5002827D0144DA0F108046168E868D2
:1023B000014207D1502080F31188BFF34F8FBFF344
:1023C0006F8FFEE722683AB1502080F31188BFF387
:1023D0004F8FBFF36F8FFEE78143616000F078F8A5
:1023E00060686968084468602046FFF799FEBDE8A8
:1023F000704000F091B970BD1400002006484FF401
:102400007A710068B0FBF1F14FF0E020491E4161A4
:1024100007210161704700001000002010B5020084
:1024200014D00F48006B38B1502080F31188BFF3EF
:102430004F8FBFF36F8FFEE700F04AF80021104680
:10244000FFF71AFD00F068F9002807D105494FF0A1
:1024500080500860BFF34F8FBFF36F8F10BD000037
:102460003800002004ED00E01CB515480024CDE93B
:1024700000402346802213A1144800F0AFF8012841
:1024800009D0401C1AD1502080F31188BFF34F8F20
:10249000BFF36F8FFEE7502080F31188BFF34F8F9B
:1024A000BFF36F8F06484FF0FF312C388162012156
:1024B0004161C460BDE81C4000F040B81CBD000094
:1024C0006400002049444C450000000069200008D9
:1024D0000248016B491C016370470000380000206E
:1024E0001448016B11B10121C16170470021C16124
:1024F0000169B1FA81F1C1F11F0101EB81020E49BD
:1025000051F822306BB101EB820101F108034A68F6
:1025100052684A609A4201D152684A60D1680160AB
:102520007047502080F31188BFF34F8FBFF36F8F38
:10253000FEE7000038000020900D00201CB519496E
:1025400008780190FF20087008788DF800009DF849
:102550000000154A00F0500010700720906005E060
:102560009DF800305B008DF80030401E9DF8003073
:102570001B06F5D4000200F4E0609060019808703A
:102580000A48016841F470010160016841F070413E
:102590000160FFF733FF00205060FDF7C3FD00200E
:1025A0001CBD000000E400E02C00002020ED00E055
:1025B00010B5502080F31188BFF34F8FBFF36F8F9A
:1025C00000F046F818B104494FF080500860002030
:1025D00080F3118810BD000004ED00E02DE9FF5FDD
:1025E0008346DDE90E87994616468A469000FFF736
:1025F000E1FD05001AD05420FFF7DCFD040012D0E5
:1026000025630021CDE90241CDE900874B463246E2
:1026100051465846FFF73CFD2046FFF765FC012078
:1026200004B0BDE8F09F2846FFF7BAFE4FF0FF3038
:10263000F6E700000548416919B1006B18B10020A8
:1026400070470120704702207047000038000020CA
:102650002DE9F0412E4C0027206B40B1A069401CB1
:10266000A061E06900B101273846BDE8F081E66865
:10267000761CE66013D1606B006838B1502080F39F
:102680001188BFF34F8FBFF36F8FFEE7606BA16BB5
:102690006163A063206A401C2062FFF767FDA06AA7
:1026A000DFF87080864209D3606B006880B1606B90
:1026B000C068C568686886420DD2A0622068C06A9A
:1026C00000EB800158F821000128CAD90127C8E78A
:1026D0004FF0FF30F1E7281DFFF7EAFDA86A18B1B7
:1026E00005F11800FFF7E4FDE86A01212269814045
:1026F0001143216100EB800108EB8100291DFFF7E8
:102700000FFEE86A2168C96A8842CDD30127CBE76A
:1027100038000020900D00202DE9F0472C4D0024BA
:102720002746286B38B1FFF707FE286B401E286349
:10273000286B40B146E0502080F31188BFF34F8FE3
:10274000BFF36F8FFEE7A968224E0120D1B3A6F137
:10275000B40980463068E8B1F068C46804F1180034
:10276000FFF7A6FD201DFFF7A3FDE06A2A6908FA1E
:1027700000F11143296100EB800109EB8100211D6B
:10278000FFF7CEFDE06A2968C96A8842E2D3C5F83E
:102790001C80DFE70CB1FFF7E9FCAC6944B14646A9
:1027A000FFF756FF00B1EE61641EF9D10020A86169
:1027B000E86938B10849012738070860BFF34F8F2F
:1027C000BFF36F8FFFF7D8FD3846BDE8F0870000F4
:1027D00038000020440E002004ED00E00828000826
:1027E000111C000800000000000000008000000034
:1027F00000000000000000000102030406070809B1
:10280000000000000102030464656661756C745485
:1028100061736B0034280008000000207400000081
:10282000481D0008A8280008740000200C120000B1
:10283000581D00080000000001000000100000000A
:102840000000000000A24A04000000000000000098
:102850000000000000000000000000000000000078
:1028600000000000AAAAAAAA0000000000000000C0
:102870000000000000000000000000000000000058
:102880000000000000000000000000000000000048
:102890000000000000000000000000000000000038
:0828A000000000000000000030
:04000005080000ED02
:00000001FF
